{
  "contractName": "Counter",
  "abi": [
    {
      "inputs": [],
      "payable": false,
      "stateMutability": "nonpayable",
      "type": "constructor"
    },
    {
      "constant": false,
      "inputs": [],
      "name": "count",
      "outputs": [],
      "payable": false,
      "stateMutability": "nonpayable",
      "type": "function"
    }
  ],
  "bytecode": "0x6080604052348015600f57600080fd5b50600080819055506078806100256000396000f3fe6080604052348015600f57600080fd5b506004361060285760003560e01c806306661abd14602d575b600080fd5b60336035565b005b60016000540160008190555056fea265627a7a7231582092611a65f815f1ee5b6ce659a2e711238eb799970e6e3047f699c98ff53aad2064736f6c63430005100032",
  "source": "pragma solidity >=0.4.22 <0.9.0;\r\n\r\ncontract Counter {\r\n    uint counter;\r\n\r\n    constructor()  public {\r\n        counter = 0;\r\n    }\r\n\r\n    function count() public{\r\n        counter = counter + 1;\r\n    }\r\n}",
  "sourcePath": "G:/prictice/prictice_ok/w1_1/truffle_demo/contracts/Counter.sol",
  "compiler": {
    "name": "solc",
    "version": "0.5.16+commit.9c3226ce.Emscripten.clang"
  },
  "schemaVersion": "3.3.4",
  "updatedAt": "2022-02-23T07:20:38.163Z",
  "devdoc": {
    "methods": {}
  },
  "userdoc": {
    "methods": {}
  }
}