{
  "contractName": "Counter",
  "abi": [
    {
      "inputs": [],
      "payable": false,
      "stateMutability": "nonpayable",
      "type": "constructor"
    },
    {
      "constant": true,
      "inputs": [],
      "name": "counter",
      "outputs": [
        {
          "internalType": "uint256",
          "name": "",
          "type": "uint256"
        }
      ],
      "payable": false,
      "stateMutability": "view",
      "type": "function"
    },
    {
      "constant": false,
      "inputs": [],
      "name": "count",
      "outputs": [],
      "payable": false,
      "stateMutability": "nonpayable",
      "type": "function"
    }
  ],
  "bytecode": "0x6080604052348015600f57600080fd5b506000808190555060a4806100256000396000f3fe6080604052348015600f57600080fd5b506004361060325760003560e01c806306661abd14603757806361bc221a14603f575b600080fd5b603d605b565b005b60456069565b6040518082815260200191505060405180910390f35b600160005401600081905550565b6000548156fea265627a7a72315820c3e5d4316eafad4447d33b8f7ed231206504bb95fb34e63f42b76644c0a7ff8b64736f6c63430005100032",
  "source": "pragma solidity >=0.4.22 <0.9.0;\r\n\r\ncontract Counter {\r\n    uint public counter;\r\n\r\n    constructor()  public {\r\n        counter = 0;\r\n    }\r\n\r\n    function count() public{\r\n        counter = counter + 1;\r\n    }\r\n}",
  "sourcePath": "D:\\ok_prictice\\prictice_ok\\w1_1\\truffle_demo\\contracts\\Counter.sol",
  "compiler": {
    "name": "solc",
    "version": "0.5.16+commit.9c3226ce.Emscripten.clang"
  },
  "schemaVersion": "3.4.2",
  "updatedAt": "2022-02-26T09:45:11.721Z",
  "networkType": "ethereum",
  "devdoc": {
    "methods": {}
  },
  "userdoc": {
    "methods": {}
  }
}